:100F4F00D3EF9400EE940040147D7C7C00ED1D7077
:0D0F5F00011CED4C70F7EF1F70E61E80E3E3
:010F6C002262
:0C0FA8001536153615361536153615367B
:010FB400221A
:100E2A00E4FF755E017E08EF25E0FFE4FD209409EA
:100E3A00AC050DECC3941440F4EDC3941440028045
:100E4A0023120FA8120FA8120FA830941C0F309467
:100E5A000DAC050DECC394145004D29480F0EDC38C
:0B0E6A0094144005E4F55EFF22DEBC9E
:010E7500225A
:100A8400E4FBF9FAC2AFC2947F14FE120F4FD29462
:100A9400120FA8120FA8120FA8120FA830940280E8
:100AA40074209409AF020AEFC3941440F4EAC39487
:100AB4001440028016E4FAD294309409AF020AEF8B
:100AC400C3941440F4EAC394144004D2948046E4DA
:100AD400FB120E2A74592BF8A607E55E7006D29411
:100AE400D2AFFF22EB6404600774592BF8E629F9AE
:100AF4000BBB05DDE9B55D1DE55975F00AA485F06C
:100B04005FF560E55B75F00AA485F061F562D29447
:090B1400D2AF7F0122D2AF7F00B5
:010B1D0022B5
:100EA700FEFDFBF73F065B4F666D7D077F6F204AB0
:100EB7006F696E202053756363657373212000206B
:100EC7002048656C6C6F20576F726C64212020007E
:100D6000020E0000022E00000212000A0210000013
:100D7000020C0000021C000002200000021400000F
:100D8000022CFFFF0216000102180001021E0000E3
:100D9000020800000228000A022A00170224001E8E
:100DA0000226005A02220000021A0BB8020A0BB8EF
:100DB00014670000000000000000000000000000B8
:060DC0000000000000002D
:0B0FB500EF1FAC0670011E4C70F6220E
:04078E00AB07AA0605
:100792007C037DE81206CB7863A6077C037DE8AF75
:1007A20003AE021206CB7E007F64CFCDCFCECCCE7D
:1007B2001206CB7864A6077C037DE8AF03AE021273
:1007C20006CB7E007F64CFCDCFCECCCE1206CB7EC1
:1007D200007F0ACFCDCFCECCCE1206CB7865A6074E
:1007E200AE02AF037C007D0A1206CB7866A605E452
:1007F200F536E536B40800504D900802F828287303
:1008020002081A02081E02082602082A02083202F8
:10081200083602083E020842C2A28002D2A2C2A345
:10082200C2A48022C2A28002D2A2D2A3C2A48016F3
:10083200C2A28002D2A2C2A3D2A4800AC2A2800211
:10084200D2A2D2A3D2A474632536F8E6900EAB935B
:10085200F5807F017E00120F4F0536E536C3940402
:020862004090C4
:010864002271
:04086500AB07AA062D
:100869007C037DE81206CB7863A6077C037DE8AF9D
:1008790003AE021206CB7E007F64CFCDCFCECCCEA5
:100889001206CB7864A6077C037DE8AF03AE02129B
:1008990006CB7E007F64CFCDCFCECCCE1206CB7EE9
:1008A900007F0ACFCDCFCECCCE1206CB7865A60776
:1008B900AE02AF037C007D0A1206CB7866A60575E9
:1008C9003604E536B40800504D9008D9F828287345
:1008D9000208F10208F50208FD02090102090902EC
:1008E900090D020915020919C2A28002D2A2C2A3E6
:1008F900C2A48022C2A28002D2A2D2A3C2A480161C
:10090900C2A28002D2A2C2A3D2A4800AC2A2800239
:10091900D2A2D2A3D2A4745F2536F8E6900EAB9387
:10092900F5807F017E00120F4F0536E536C3940826
:020939004090EC
:01093B002299
:100403007F01120FC07F54120FCA7F45120FCA7F9C
:100413004D120FCA7F3A120FCAAE61AF627C007DE4
:1004230064120720EF2430FF120FCAAE61AF627C63
:10043300007D0A1207207C007D0A120720ED24307C
:10044300FF120FCA7F20120FCA7F52120FCA7F41B9
:10045300120FCA7F4E120FCA7F3A120FCAAE28AFCD
:10046300297C007D0A120720EF2430FF120FCAAE49
:1004730028AF297C007D0A120720ED2430FF120FDC
:10048300CA7F2D120FCAAE2AAF2B7C007D0A12073A
:1004930020EF2430FF120FCAAE2AAF2B7C007D0A57
:1004A300120720ED2430FF120FCA7FC0120FC07F46
:1004B30048120FCA7F55120FCA7F4D120FCA7F3AD7
:1004C300120FCAAE5FAF607C007D64120720EF2479
:1004D30030FF120FCAAE5FAF607C007D0A120720A7
:1004E3007C007D0A120720ED2430FF120FCA7F2003
:1004F300120FCA7F52120FCA7F41120FCA7F4E12C8
:100503000FCA7F3A120FCAAE24AF257C007D0A12B0
:100513000720EF2430FF120FCAAE24AF257C007DE5
:100523000A120720ED2430FF120FCA7F2D120FCAC3
:10053300AE26AF277C007D0A120720EF2430FF127E
:100543000FCAAE26AF277C007D0A120720ED2430A8
:04055300FF020FCACA
:100C8C00E4F536F5377F01120FC0E4F536F537740D
:100C9C00B52537F582740E3536F583E493FF120FC4
:100CAC00CA0537E53770020536C39410E536648003
:100CBC00948040DB7FC0120FC0E4F536F53774C664
:100CCC002537F582740E3536F583E493FF120FCA7F
:100CDC000537E53770020536C39410E53664809409
:0A0CEC008040DB7F887E13020F15A5
:10000E0075985075C83475CBFF75CAF7D2AFD2ACA0
:04001E00E4F587225C
:1009E900753602AE61AF627C007D0A120720120ED5
:1009F900768F37AE5FAF607C007D0A120720120E3A
:100A0900768F387B007A0079367D037C00120F8659
:100A1900AD07EEF53A753900753B008D3CC2927F02
:100A2900057E00120F4F7599FA3099FDC299759993
:100A3900023099FDC299AE61AF627C007D0A12074E
:100A490020120E768F993099FDC299AE5FAF607C06
:100A5900007D0A120720120E768F993099FDC299EE
:100A6900853A993099FDC299853C993099FDC29989
:0A0A79007599F53099FDC299D292EB
:010A83002250
:10093C00753604AF29AE28120E768F37AF2BAE2A40
:10094C00120E768F38AF25AE24120E768F39AF2764
:10095C00AE26120E768F3A7B007A0079367D057CB6
:10096C0000120F86AD07EEF53C753B00753D008D12
:10097C003EC2927F057E00120F4F7599FA3099FD99
:10098C00C2997599043099FDC299AF29AE28120EFF
:10099C00768F993099FDC299AF2BAE2A120E768FB5
:1009AC00993099FDC299AF25AE24120E768F9930ED
:1009BC0099FDC299AF27AE26120E768F993099FD0C
:1009CC00C299853C993099FDC299853E993099FD23
:0C09DC00C2997599F53099FDC299D2922C
:0109E80022EC
:100BAA00753601AE1AAF1B7C007D64120720120E47
:100BBA00768F377B007A0079367D027C00120F86A9
:100BCA00AD07EEF539753800753A008D3BC2927F54
:100BDA00057E00120F4F7599FA3099FDC2997599E1
:100BEA00013099FDC299AE1AAF1B7C007D641207D1
:100BFA0020120E768F993099FDC2998539993099CC
:100C0A00FDC299853B993099FDC2997599F530993C
:050C1A00FDC299D29219
:010C1F0022B2
:070FD400D288D2A8D2AF229F
:03002300020226B0
:10022600C0E0C0D075D000C000C001C004C005C089
:0902360006C0072098030203F240
:10023F00753000753100AF997532008F33C298E574
:10024F003364FB45327028E52345227022E52145B2
:10025F0020701CF520752101E52325E02467F8A601
:10026F003208A6330523E523700205220203F2E5C7
:10027F003364F5453260030203D6C3E5239405E5E5
:10028F00226480948050030203D6E5216401452047
:10029F0060030203D6E52325E02467F8A63208A6FB
:1002AF0033753000753100D3E5319523E522648035
:1002BF00F8E5306480985019E53125E02468F9E7B6
:1002CF00F5993099FDC2990531E5317002053080FD
:1002DF00D67869E6FE08E6FF64FB4E701F786CE681
:1002EF00640318467016786EE664B11846700D7880
:1002FF0070E6640218467004F52CF52D7867E6FC5D
:10030F0008E6FD64FB4C7014EF64014E700E786CC0
:10031F00E664AA18467005F52C752D01ED64FB4CAB
:10032F007017786AE664051846700E786CE664AA52
:10033F0018467005F52C752D027868E664FB184693
:10034F007017786AE664011846700E786CE664BB25
:10035F0018467005F52C752D037867E6FE08E6FF45
:10036F0064FB4E7017786AE664011846700E786C5D
:10037F00E664CC18467005F52C752D04EF64FB4E22
:10038F007017786AE664011846700E786CE664DDC3
:10039F0018467005F52C752D057868E664FB184630
:1003AF007017786AE664021846700E786CE664DDA2
:1003BF0018467005F52C752D0675220075230075EE
:1003CF002000752100801CE521640145207014E593
:1003DF002325E02467F8A63208A6330523E523700A
:0303EF00020522E2
:1003F200D007D006D005D004D001D000D0D0D0E0B4
:0104020032C7
:10055700E4F534F5357FE87E03120F4F120A847FE6
:10056700B87E0B120F4F120F9812000E120F6D125A
:100577000FD4D292D2B2E50F6464450E7007F50E20
:10058700F50F120A84E50964014508700EAF62AEE3
:100597006112078EAF60AE5F120865E51F646445A0
:1005A7001E700DE50945087007F51EF51F120403B7
:1005B700C3E511951BE51A6480F8E510648098403F
:1005C70008E4F510F5111209E9E52C600302067934
:1005D700E52DB4070040030206799005E8F82828BE
:1005E700730205FD02060202060E02063C020648D9
:1005F70002065002065C120C8C80717F647E00122A
:100607000F4F12093C8065786EE6FF120F2E8E2879
:100617008F297870E6FF120F2E8E2A8F2B7872E6BD
:10062700FF120F2E8E248F257874E6FF120F2E8E61
:10063700268F278037C290C291752E00752F0180B3
:100647002B751C00751D0180237F647E00120F4FE0
:10065700120BAA8017786EE6FF120F2E7C007D64BE
:100667001206B98E1A8F1BE4F510F51174FFF52CDD
:10067700F52DE5154514600A7F08120FC07587012F
:1006870080087F0C120FC0E4F58720B20302057DB6
:0906970075140075150102057DC2
:100F9800758CDCE4F58A758901D28CD2A9D2AF228E
:03000B00020DC71C
:100DC700C0E0C0D075D000C000758CDC758A00C348
:100DD700E50F9464E50E648094805008050FE50FD5
:100DE7007002050EC3E511951BE51A6480F8E5103E
:100DF70064809850080511E51170020510E50D642F
:100E070001450C7002B295C3E51F9464E51E64802A
:100E170094805008051FE51F7002051ED000D0D032
:030E2700D0E032E6
:03000300020ED713
:100ED700C0E0C0D075D000C004C006C00720B21261
:100EE7007FE87E03120FB520B208B2A07514007513
:0D0EF7001500D007D006D004D0D0D0E032D6
:100026000000C0C1C1810140C30103C00280C241BA
:10003600C60106C00780C7410500C5C1C48104408A
:10004600CC010CC00D80CD410F00CFC1CE810E403A
:100056000A00CAC1CB810B40C90109C00880C8414A
:10006600D80118C01980D9411B00DBC1DA811A40BA
:100076001E00DEC1DF811F40DD011DC01C80DC418A
:100086001400D4C1D5811540D70117C01680D641BA
:10009600D20112C01380D3411100D1C1D0811040CA
:1000A600F00130C03180F1413300F3C1F2813240BA
:1000B6003600F6C1F7813740F50135C03480F4418A
:1000C6003C00FCC1FD813D40FF013FC03E80FE413A
:1000D600FA013AC03B80FB413900F9C1F88138404A
:1000E6002800E8C1E9812940EB012BC02A80EA41BA
:1000F600EE012EC02F80EF412D00EDC1EC812C408A
:10010600E40124C02580E5412700E7C1E6812640B9
:100116002200E2C1E3812340E10121C02080E041C9
:10012600A00160C06180A1416300A3C1A2816240B9
:100136006600A6C1A7816740A50165C06480A44189
:100146006C00ACC1AD816D40AF016FC06E80AE4139
:10015600AA016AC06B80AB416900A9C1A881684049
:100166007800B8C1B9817940BB017BC07A80BA41B9
:10017600BE017EC07F80BF417D00BDC1BC817C4089
:10018600B40174C07580B5417700B7C1B6817640B9
:100196007200B2C1B3817340B10171C07080B041C9
:1001A600500090C191815140930153C052809241B9
:1001B600960156C057809741550095C19481544089
:1001C6009C015CC05D809D415F009FC19E815E4039
:1001D6005A009AC19B815B40990159C05880984149
:1001E600880148C0498089414B008BC18A814A40B9
:1001F6004E008EC18F814F408D014DC04C808C4189
:10020600440084C185814540870147C046808641B8
:10021600820142C043808341410081C180814040C8
:0A0C20008B3F8A4089418C428D43CE
:100C2A0085444985454AE5431543AE42700215425B
:100C3A00D39400EE648094804043E54AF54BAB467A
:100C4A00AA47A948C003C002C001AB3F0541E5411C
:100C5A00AA407002054014F91206A0654B75F0020D
:100C6A00A4F58285F083D001D002D003120756FD85
:100C7A00E549FFE5F0F549EF6DF54A80A9AE49AFC0
:010C8A004A1F
:010C8B002246
:0A0CF6008B4C8A4D894E8C4F8D50B7
:100D0000855156855257E5501550AE4F7002154F1C
:100D1000D39400EE648094804041E556F558AB537F
:100D2000AA54A955C003C002C001AB4C054EE54E04
:100D3000AA4D7002054D14F91206A0655875F0020F
:100D4000A4F58285F083D001D002D003120756FDAE
:0F0D5000E55765F0F556EDF55780ABAE56AF574A
:010D5F002271
:100F860074FFF544F545F546754700754826120C7D
:010F9600203A
:010F97002237
:040E7600AB07AA0616
:100E7A007C007D0A1207208F828E83AE02AF037C2C
:100E8A00007D0A120720E582C4F8540FC868FFE5FE
:0C0E9A0083C454F048FEEF2DFFEE3CFE38
:010EA6002229
:100F2E00EFC4540F753600F537EF540FFB7A00AE51
:100F3E0036AF377C007D0A1206B9EF2BFFEA3EFE74
:010F4E002280
:100F0400C2A58F807F017E00120F15D2A77F057EB8
:010F140000DC
:100F1500D3EF9400EE9400400F7DC77C01DCFEDD2D
:080F2500FAEF1F70EB1E80E8DB
:010F2D0022A1
:0A0FC000C2A7C2A6120F04C2A722A6
:0A0FCA00C2A7D2A6120F04C2A7228C
:100F6D007F38120FC07F0C120FC07F06120FC07F8B
:090F7D0001120FC07F80020FC0B9
:03000000020B1ED2
:0C0B1E00787FE4F6D8FD75817A020B6543
:1006A000BB010689828A83E0225002E722BBFE0258
:0906B000E32289828A83E493228B
:1006B900EF8DF0A4A8F0CF8CF0A428CE8DF0A42E55
:0206C900FE220F
:1006CB00BC000BBE0029EF8DF084FFADF022E4CC13
:1006DB00F875F008EF2FFFEE33FEEC33FCEE9DECDC
:1006EB00984005FCEE9DFE0FD5F0E9E4CEFD22ED22
:1006FB00F8F5F0EE8420D21CFEADF075F008EF2F6C
:10070B00FFED33FD4007985006D5F0F222C398FD5C
:05071B000FD5F0EA22F9
:10072000C2D5EC30E709B2D5E4C39DFDE49CFCEEF4
:1007300030E715B2D5E4C39FFFE49EFE1206CBC39B
:10074000E49DFDE49CFC80031206CB30D507C3E496
:060750009FFFE49EFE2263
:10075600BB0110E58229F582E5833AF583E0F5F0E1
:10076600A3E0225009E92582F886F008E622BBFEBE
:100776000AE92582F8E2F5F008E222E5832AF58304
:08078600E993F5F0A3E99322C9
:100B2A00020557E493A3F8E493A34003F68001F285
:100B3A0008DFF48029E493A3F85407240CC8C333CC
:100B4A00C4540F4420C8834004F456800146F6DF9B
:100B5A00E4800B0102040810204080900D60E47EBE
:100B6A00019360BCA3FF543F30E509541FFEE49390
:100B7A00A360010ECF54C025E060A840B8E493A357
:100B8A00FAE493A3F8E493A3C8C582C8CAC583CA82
:100B9A00F0A3C8C582C8CAC583CADFE9DEE780BE3A
:010DC600002C
:00000001FF
